{
	"data": {
		"bytecode": {
			"linkReferences": {},
			"object": "6080604052348015600e575f80fd5b506105f58061001c5f395ff3fe608060405234801561000f575f80fd5b5060043610610055575f3560e01c80634717f97c146100595780634b9f5c9814610077578063a3ec138d14610093578063b5b47f42146100c3578063fb286c65146100e1575b5f80fd5b6100616100ff565b60405161006e9190610381565b60405180910390f35b610091600480360381019061008c91906103da565b6101cf565b005b6100ad60048036038101906100a8919061045f565b6102e9565b6040516100ba9190610499565b60405180910390f35b6100cb610305565b6040516100d891906104ca565b60405180910390f35b6100e961030b565b6040516100f691906104ca565b60405180910390f35b6060600254600154111561014a576040518060400160405280600981526020017f5965732057696e7321000000000000000000000000000000000000000000000081525090506101cc565b6001546002541115610193576040518060400160405280600781526020017f4e6f2057696e730000000000000000000000000000000000000000000000000081525090506101cc565b6040518060400160405280600c81526020017f497420697320612054696521000000000000000000000000000000000000000081525090505b90565b5f803373ffffffffffffffffffffffffffffffffffffffff1673ffffffffffffffffffffffffffffffffffffffff1681526020019081526020015f205f9054906101000a900460ff1615610258576040517f08c379a000000000000000000000000000000000000000000000000000000000815260040161024f9061052d565b60405180910390fd5b60015f803373ffffffffffffffffffffffffffffffffffffffff1673ffffffffffffffffffffffffffffffffffffffff1681526020019081526020015f205f6101000a81548160ff02191690831515021790555080156102ce5760015f8154809291906102c490610578565b91905055506102e6565b60025f8154809291906102e090610578565b91905055505b50565b5f602052805f5260405f205f915054906101000a900460ff1681565b60025481565b60015481565b5f81519050919050565b5f82825260208201905092915050565b8281835e5f83830152505050565b5f601f19601f8301169050919050565b5f61035382610311565b61035d818561031b565b935061036d81856020860161032b565b61037681610339565b840191505092915050565b5f6020820190508181035f8301526103998184610349565b905092915050565b5f80fd5b5f8115159050919050565b6103b9816103a5565b81146103c3575f80fd5b50565b5f813590506103d4816103b0565b92915050565b5f602082840312156103ef576103ee6103a1565b5b5f6103fc848285016103c6565b91505092915050565b5f73ffffffffffffffffffffffffffffffffffffffff82169050919050565b5f61042e82610405565b9050919050565b61043e81610424565b8114610448575f80fd5b50565b5f8135905061045981610435565b92915050565b5f60208284031215610474576104736103a1565b5b5f6104818482850161044b565b91505092915050565b610493816103a5565b82525050565b5f6020820190506104ac5f83018461048a565b92915050565b5f819050919050565b6104c4816104b2565b82525050565b5f6020820190506104dd5f8301846104bb565b92915050565b7f596f75206876616520616c726561647920566f746564210000000000000000005f82015250565b5f61051760178361031b565b9150610522826104e3565b602082019050919050565b5f6020820190508181035f8301526105448161050b565b9050919050565b7f4e487b71000000000000000000000000000000000000000000000000000000005f52601160045260245ffd5b5f610582826104b2565b91507fffffffffffffffffffffffffffffffffffffffffffffffffffffffffffffffff82036105b4576105b361054b565b5b60018201905091905056fea2646970667358221220bc0d356d1df079a84f0bcb20f88377df8465b86a824f09a0ecf466798edb6db464736f6c634300081a0033",
			"opcodes": "PUSH1 0x80 PUSH1 0x40 MSTORE CALLVALUE DUP1 ISZERO PUSH1 0xE JUMPI PUSH0 DUP1 REVERT JUMPDEST POP PUSH2 0x5F5 DUP1 PUSH2 0x1C PUSH0 CODECOPY PUSH0 RETURN INVALID PUSH1 0x80 PUSH1 0x40 MSTORE CALLVALUE DUP1 ISZERO PUSH2 0xF JUMPI PUSH0 DUP1 REVERT JUMPDEST POP PUSH1 0x4 CALLDATASIZE LT PUSH2 0x55 JUMPI PUSH0 CALLDATALOAD PUSH1 0xE0 SHR DUP1 PUSH4 0x4717F97C EQ PUSH2 0x59 JUMPI DUP1 PUSH4 0x4B9F5C98 EQ PUSH2 0x77 JUMPI DUP1 PUSH4 0xA3EC138D EQ PUSH2 0x93 JUMPI DUP1 PUSH4 0xB5B47F42 EQ PUSH2 0xC3 JUMPI DUP1 PUSH4 0xFB286C65 EQ PUSH2 0xE1 JUMPI JUMPDEST PUSH0 DUP1 REVERT JUMPDEST PUSH2 0x61 PUSH2 0xFF JUMP JUMPDEST PUSH1 0x40 MLOAD PUSH2 0x6E SWAP2 SWAP1 PUSH2 0x381 JUMP JUMPDEST PUSH1 0x40 MLOAD DUP1 SWAP2 SUB SWAP1 RETURN JUMPDEST PUSH2 0x91 PUSH1 0x4 DUP1 CALLDATASIZE SUB DUP2 ADD SWAP1 PUSH2 0x8C SWAP2 SWAP1 PUSH2 0x3DA JUMP JUMPDEST PUSH2 0x1CF JUMP JUMPDEST STOP JUMPDEST PUSH2 0xAD PUSH1 0x4 DUP1 CALLDATASIZE SUB DUP2 ADD SWAP1 PUSH2 0xA8 SWAP2 SWAP1 PUSH2 0x45F JUMP JUMPDEST PUSH2 0x2E9 JUMP JUMPDEST PUSH1 0x40 MLOAD PUSH2 0xBA SWAP2 SWAP1 PUSH2 0x499 JUMP JUMPDEST PUSH1 0x40 MLOAD DUP1 SWAP2 SUB SWAP1 RETURN JUMPDEST PUSH2 0xCB PUSH2 0x305 JUMP JUMPDEST PUSH1 0x40 MLOAD PUSH2 0xD8 SWAP2 SWAP1 PUSH2 0x4CA JUMP JUMPDEST PUSH1 0x40 MLOAD DUP1 SWAP2 SUB SWAP1 RETURN JUMPDEST PUSH2 0xE9 PUSH2 0x30B JUMP JUMPDEST PUSH1 0x40 MLOAD PUSH2 0xF6 SWAP2 SWAP1 PUSH2 0x4CA JUMP JUMPDEST PUSH1 0x40 MLOAD DUP1 SWAP2 SUB SWAP1 RETURN JUMPDEST PUSH1 0x60 PUSH1 0x2 SLOAD PUSH1 0x1 SLOAD GT ISZERO PUSH2 0x14A JUMPI PUSH1 0x40 MLOAD DUP1 PUSH1 0x40 ADD PUSH1 0x40 MSTORE DUP1 PUSH1 0x9 DUP2 MSTORE PUSH1 0x20 ADD PUSH32 0x5965732057696E73210000000000000000000000000000000000000000000000 DUP2 MSTORE POP SWAP1 POP PUSH2 0x1CC JUMP JUMPDEST PUSH1 0x1 SLOAD PUSH1 0x2 SLOAD GT ISZERO PUSH2 0x193 JUMPI PUSH1 0x40 MLOAD DUP1 PUSH1 0x40 ADD PUSH1 0x40 MSTORE DUP1 PUSH1 0x7 DUP2 MSTORE PUSH1 0x20 ADD PUSH32 0x4E6F2057696E7300000000000000000000000000000000000000000000000000 DUP2 MSTORE POP SWAP1 POP PUSH2 0x1CC JUMP JUMPDEST PUSH1 0x40 MLOAD DUP1 PUSH1 0x40 ADD PUSH1 0x40 MSTORE DUP1 PUSH1 0xC DUP2 MSTORE PUSH1 0x20 ADD PUSH32 0x4974206973206120546965210000000000000000000000000000000000000000 DUP2 MSTORE POP SWAP1 POP JUMPDEST SWAP1 JUMP JUMPDEST PUSH0 DUP1 CALLER PUSH20 0xFFFFFFFFFFFFFFFFFFFFFFFFFFFFFFFFFFFFFFFF AND PUSH20 0xFFFFFFFFFFFFFFFFFFFFFFFFFFFFFFFFFFFFFFFF AND DUP2 MSTORE PUSH1 0x20 ADD SWAP1 DUP2 MSTORE PUSH1 0x20 ADD PUSH0 KECCAK256 PUSH0 SWAP1 SLOAD SWAP1 PUSH2 0x100 EXP SWAP1 DIV PUSH1 0xFF AND ISZERO PUSH2 0x258 JUMPI PUSH1 0x40 MLOAD PUSH32 0x8C379A000000000000000000000000000000000000000000000000000000000 DUP2 MSTORE PUSH1 0x4 ADD PUSH2 0x24F SWAP1 PUSH2 0x52D JUMP JUMPDEST PUSH1 0x40 MLOAD DUP1 SWAP2 SUB SWAP1 REVERT JUMPDEST PUSH1 0x1 PUSH0 DUP1 CALLER PUSH20 0xFFFFFFFFFFFFFFFFFFFFFFFFFFFFFFFFFFFFFFFF AND PUSH20 0xFFFFFFFFFFFFFFFFFFFFFFFFFFFFFFFFFFFFFFFF AND DUP2 MSTORE PUSH1 0x20 ADD SWAP1 DUP2 MSTORE PUSH1 0x20 ADD PUSH0 KECCAK256 PUSH0 PUSH2 0x100 EXP DUP2 SLOAD DUP2 PUSH1 0xFF MUL NOT AND SWAP1 DUP4 ISZERO ISZERO MUL OR SWAP1 SSTORE POP DUP1 ISZERO PUSH2 0x2CE JUMPI PUSH1 0x1 PUSH0 DUP2 SLOAD DUP1 SWAP3 SWAP2 SWAP1 PUSH2 0x2C4 SWAP1 PUSH2 0x578 JUMP JUMPDEST SWAP2 SWAP1 POP SSTORE POP PUSH2 0x2E6 JUMP JUMPDEST PUSH1 0x2 PUSH0 DUP2 SLOAD DUP1 SWAP3 SWAP2 SWAP1 PUSH2 0x2E0 SWAP1 PUSH2 0x578 JUMP JUMPDEST SWAP2 SWAP1 POP SSTORE POP JUMPDEST POP JUMP JUMPDEST PUSH0 PUSH1 0x20 MSTORE DUP1 PUSH0 MSTORE PUSH1 0x40 PUSH0 KECCAK256 PUSH0 SWAP2 POP SLOAD SWAP1 PUSH2 0x100 EXP SWAP1 DIV PUSH1 0xFF AND DUP2 JUMP JUMPDEST PUSH1 0x2 SLOAD DUP2 JUMP JUMPDEST PUSH1 0x1 SLOAD DUP2 JUMP JUMPDEST PUSH0 DUP2 MLOAD SWAP1 POP SWAP2 SWAP1 POP JUMP JUMPDEST PUSH0 DUP3 DUP3 MSTORE PUSH1 0x20 DUP3 ADD SWAP1 POP SWAP3 SWAP2 POP POP JUMP JUMPDEST DUP3 DUP2 DUP4 MCOPY PUSH0 DUP4 DUP4 ADD MSTORE POP POP POP JUMP JUMPDEST PUSH0 PUSH1 0x1F NOT PUSH1 0x1F DUP4 ADD AND SWAP1 POP SWAP2 SWAP1 POP JUMP JUMPDEST PUSH0 PUSH2 0x353 DUP3 PUSH2 0x311 JUMP JUMPDEST PUSH2 0x35D DUP2 DUP6 PUSH2 0x31B JUMP JUMPDEST SWAP4 POP PUSH2 0x36D DUP2 DUP6 PUSH1 0x20 DUP7 ADD PUSH2 0x32B JUMP JUMPDEST PUSH2 0x376 DUP2 PUSH2 0x339 JUMP JUMPDEST DUP5 ADD SWAP2 POP POP SWAP3 SWAP2 POP POP JUMP JUMPDEST PUSH0 PUSH1 0x20 DUP3 ADD SWAP1 POP DUP2 DUP2 SUB PUSH0 DUP4 ADD MSTORE PUSH2 0x399 DUP2 DUP5 PUSH2 0x349 JUMP JUMPDEST SWAP1 POP SWAP3 SWAP2 POP POP JUMP JUMPDEST PUSH0 DUP1 REVERT JUMPDEST PUSH0 DUP2 ISZERO ISZERO SWAP1 POP SWAP2 SWAP1 POP JUMP JUMPDEST PUSH2 0x3B9 DUP2 PUSH2 0x3A5 JUMP JUMPDEST DUP2 EQ PUSH2 0x3C3 JUMPI PUSH0 DUP1 REVERT JUMPDEST POP JUMP JUMPDEST PUSH0 DUP2 CALLDATALOAD SWAP1 POP PUSH2 0x3D4 DUP2 PUSH2 0x3B0 JUMP JUMPDEST SWAP3 SWAP2 POP POP JUMP JUMPDEST PUSH0 PUSH1 0x20 DUP3 DUP5 SUB SLT ISZERO PUSH2 0x3EF JUMPI PUSH2 0x3EE PUSH2 0x3A1 JUMP JUMPDEST JUMPDEST PUSH0 PUSH2 0x3FC DUP5 DUP3 DUP6 ADD PUSH2 0x3C6 JUMP JUMPDEST SWAP2 POP POP SWAP3 SWAP2 POP POP JUMP JUMPDEST PUSH0 PUSH20 0xFFFFFFFFFFFFFFFFFFFFFFFFFFFFFFFFFFFFFFFF DUP3 AND SWAP1 POP SWAP2 SWAP1 POP JUMP JUMPDEST PUSH0 PUSH2 0x42E DUP3 PUSH2 0x405 JUMP JUMPDEST SWAP1 POP SWAP2 SWAP1 POP JUMP JUMPDEST PUSH2 0x43E DUP2 PUSH2 0x424 JUMP JUMPDEST DUP2 EQ PUSH2 0x448 JUMPI PUSH0 DUP1 REVERT JUMPDEST POP JUMP JUMPDEST PUSH0 DUP2 CALLDATALOAD SWAP1 POP PUSH2 0x459 DUP2 PUSH2 0x435 JUMP JUMPDEST SWAP3 SWAP2 POP POP JUMP JUMPDEST PUSH0 PUSH1 0x20 DUP3 DUP5 SUB SLT ISZERO PUSH2 0x474 JUMPI PUSH2 0x473 PUSH2 0x3A1 JUMP JUMPDEST JUMPDEST PUSH0 PUSH2 0x481 DUP5 DUP3 DUP6 ADD PUSH2 0x44B JUMP JUMPDEST SWAP2 POP POP SWAP3 SWAP2 POP POP JUMP JUMPDEST PUSH2 0x493 DUP2 PUSH2 0x3A5 JUMP JUMPDEST DUP3 MSTORE POP POP JUMP JUMPDEST PUSH0 PUSH1 0x20 DUP3 ADD SWAP1 POP PUSH2 0x4AC PUSH0 DUP4 ADD DUP5 PUSH2 0x48A JUMP JUMPDEST SWAP3 SWAP2 POP POP JUMP JUMPDEST PUSH0 DUP2 SWAP1 POP SWAP2 SWAP1 POP JUMP JUMPDEST PUSH2 0x4C4 DUP2 PUSH2 0x4B2 JUMP JUMPDEST DUP3 MSTORE POP POP JUMP JUMPDEST PUSH0 PUSH1 0x20 DUP3 ADD SWAP1 POP PUSH2 0x4DD PUSH0 DUP4 ADD DUP5 PUSH2 0x4BB JUMP JUMPDEST SWAP3 SWAP2 POP POP JUMP JUMPDEST PUSH32 0x596F75206876616520616C726561647920566F74656421000000000000000000 PUSH0 DUP3 ADD MSTORE POP JUMP JUMPDEST PUSH0 PUSH2 0x517 PUSH1 0x17 DUP4 PUSH2 0x31B JUMP JUMPDEST SWAP2 POP PUSH2 0x522 DUP3 PUSH2 0x4E3 JUMP JUMPDEST PUSH1 0x20 DUP3 ADD SWAP1 POP SWAP2 SWAP1 POP JUMP JUMPDEST PUSH0 PUSH1 0x20 DUP3 ADD SWAP1 POP DUP2 DUP2 SUB PUSH0 DUP4 ADD MSTORE PUSH2 0x544 DUP2 PUSH2 0x50B JUMP JUMPDEST SWAP1 POP SWAP2 SWAP1 POP JUMP JUMPDEST PUSH32 0x4E487B7100000000000000000000000000000000000000000000000000000000 PUSH0 MSTORE PUSH1 0x11 PUSH1 0x4 MSTORE PUSH1 0x24 PUSH0 REVERT JUMPDEST PUSH0 PUSH2 0x582 DUP3 PUSH2 0x4B2 JUMP JUMPDEST SWAP2 POP PUSH32 0xFFFFFFFFFFFFFFFFFFFFFFFFFFFFFFFFFFFFFFFFFFFFFFFFFFFFFFFFFFFFFFFF DUP3 SUB PUSH2 0x5B4 JUMPI PUSH2 0x5B3 PUSH2 0x54B JUMP JUMPDEST JUMPDEST PUSH1 0x1 DUP3 ADD SWAP1 POP SWAP2 SWAP1 POP JUMP INVALID LOG2 PUSH5 0x6970667358 0x22 SLT KECCAK256 0xBC 0xD CALLDATALOAD PUSH14 0x1DF079A84F0BCB20F88377DF8465 0xB8 PUSH11 0x824F09A0ECF466798EDB6D 0xB4 PUSH5 0x736F6C6343 STOP ADDMOD BYTE STOP CALLER "
		},
		"gasEstimates": {
			"creation": {
				"codeDepositCost": "305000",
				"executionCost": "341",
				"totalCost": "305341"
			},
			"external": {
				"getResults()": "infinite",
				"noVotes()": "2469",
				"vote(bool)": "51387",
				"voters(address)": "2854",
				"yesVotes()": "2491"
			}
		},
		"methodIdentifiers": {
			"getResults()": "4717f97c",
			"noVotes()": "b5b47f42",
			"vote(bool)": "4b9f5c98",
			"voters(address)": "a3ec138d",
			"yesVotes()": "fb286c65"
		}
	},
	"abi": [
		{
			"inputs": [],
			"name": "getResults",
			"outputs": [
				{
					"internalType": "string",
					"name": "",
					"type": "string"
				}
			],
			"stateMutability": "view",
			"type": "function"
		},
		{
			"inputs": [],
			"name": "noVotes",
			"outputs": [
				{
					"internalType": "uint256",
					"name": "",
					"type": "uint256"
				}
			],
			"stateMutability": "view",
			"type": "function"
		},
		{
			"inputs": [
				{
					"internalType": "bool",
					"name": "_vote",
					"type": "bool"
				}
			],
			"name": "vote",
			"outputs": [],
			"stateMutability": "nonpayable",
			"type": "function"
		},
		{
			"inputs": [
				{
					"internalType": "address",
					"name": "",
					"type": "address"
				}
			],
			"name": "voters",
			"outputs": [
				{
					"internalType": "bool",
					"name": "",
					"type": "bool"
				}
			],
			"stateMutability": "view",
			"type": "function"
		},
		{
			"inputs": [],
			"name": "yesVotes",
			"outputs": [
				{
					"internalType": "uint256",
					"name": "",
					"type": "uint256"
				}
			],
			"stateMutability": "view",
			"type": "function"
		}
	]
}